:020000040800F2
:1000000020A500209D010008CD2000082F1C00081D
:10001000C9200008F107000893360008000000001E
:10002000000000000000000000000000C1300008D7
:10003000BD0D000800000000672C0008D931000841
:10004000B7010008B7010008B7010008A52E000895
:10005000B7010008B7010008B7010008B7010008A0
:10006000B7010008B7010008B7010008B701000890
:10007000B7010008B7010008B7010008B701000880
:10008000B7010008B7010008B7010008B701000870
:10009000B7010008B7010008B7010008B701000860
:1000A000B7010008B7010008B7010008B701000850
:1000B000B701000845320008B7010008B701000881
:1000C000B7010008B7010008B7010008B701000830
:1000D000B7010008B701000895340008B70100080F
:1000E000B7010008112E0008B7010008B701000889
:1000F000B7010008B7010008B7010008B701000800
:10010000B7010008B7010008B7010008B7010008EF
:10011000B7010008B7010008B7010008B7010008DF
:10012000B70100081D0A0008B7010008B701000860
:10013000B7010008B7010008B7010008B7010008BF
:10014000B7010008B7010008B7010008B7010008AF
:10015000B7010008B7010008B7010008B70100089F
:10016000B7010008B7010008B7010008B70100088F
:10017000B7010008B701000851090008B7010008DD
:10018000B7010008B7010008DFF80CD000F0FCF957
:1001900000480047293C000820A500200648804769
:1001A00006480047FEE7FEE7FEE7FEE7FEE7FEE75C
:1001B000FEE7FEE7FEE7FEE7DD3100088901000803
:1001C00030B505462A460B4612F8010B13F8014BD1
:1001D00008B1A042F8D01CB1002802D06D1CF1E794
:1001E000284630BD2DE9FE4F81EA030404F00044A7
:1001F00021F0004100944FF0000B23F0004350EA3F
:1002000001045ED052EA03045BD0C3F30A54C1F385
:100210000A552C44A4F2F3340194A0FB0254C1F318
:10022000130141F48011C3F3130343F4801301FB62
:10023000024400FB034E840A970A44EA815447EAC9
:100240008357A4FB076802958D0A05FB07854FEAD3
:10025000932C04FB0C542705029D4FEA065847EAED
:100260001637B5EB08056EEB070C870E920E47EAC2
:10027000811742EA8312A7FB0201B6EB0B0164EB84
:1002800000042B0D43EA0C335E1844EB1C50DA4695
:100290005146E7FB0201C5F313044FEA0B3343EA6F
:1002A00014534FEA0432019C43EA0603A4F10C0400
:1002B0000294009CCDE900B400F018F903B0BDE849
:1002C000F08F00200146F9E72DE9F04D81EA0304A3
:1002D00004F0004B21F0004514464FF0000A23F0D3
:1002E000004150EA050220D054EA01021DD0C5F3B6
:1002F0000A570246C5F31303C1F31300C1F30A56AC
:1003000040F4801543F48013A7EB0608101BD64673
:1003100008F2FD3873EB050002D308F1010801E093
:1003200092185B41B8F1000F03DA00200146BDE8E6
:10033000F08D00204FF48011064684460EE0171B16
:1003400073EB050705D3121B63EB050306434CEA69
:10035000010C49084FEA300092185B4150EA01074E
:10036000EDD152EA030012D082EA040083EA0501CB
:10037000084305D0101BAB4106D20122002306E042
:1003800000224FF0004302E06FF0010253101AEB1D
:1003900006004CEB085110EB0A0041EB0B01BDE8E5
:1003A000F04D00F094B800F0004230F000400AD068
:1003B000C10D01F56071C0F3160042EA0151C20897
:1003C00040071143704700200146704730B5041EB6
:1003D00071F1000404DB4FF00044404264EB010182
:1003E000141E73F1000405DB1C464FF0004352421B
:1003F00063EB04038B4208BF824230BD01F000432F
:1004000030B421F0004150EA010206D00A0DA2F5F5
:100410006072C1F31301002A02DC30BC0020704777
:10042000440F44EAC104C100E01830BC00EBC250E4
:1004300000F016B830B50B460146002020220124FA
:1004400009E021FA02F59D4205D303FA02F5491BA2
:1004500004FA02F52844151EA2F10102F1DC30BDB8
:100460000029A8BF7047401C490008BF20F00100C8
:10047000704710B4B0FA80FC00FA0CF050EA0104A6
:1004800004BF10BC704749B1CCF1200421FA04F438
:1004900011FA0CF118BF012121430843A3EB0C0111
:1004A000CB1D4FEA00614FEA102042BF002010BC74
:1004B000704700EBC35010440029A4BF10BC704724
:1004C000401C490008BF20F0010010BC704710B567
:1004D000141E73F1000408DA401C41F10001921867
:1004E0005B411A4301D120F0010010BD2DE9F04D10
:1004F00092469B4611B1B1FA81F202E0B0FA80F265
:100500002032904600F052F804460F4640EA0A00B6
:1005100041EA0B0153465A46084313D0114653EAA9
:10052000010019D0C8F14002504600F04EF80546CF
:100530000E4650465946424600F038F8084305D06A
:10054000012004E020463946BDE8F08D0020054337
:1005500046EAE0762C4337430A986305E40AA0EBA9
:1005600008000022FD0A44EA47540A3002D5002060
:100570000146E9E7010510196941DDE9084500195F
:100580006941BDE8F04DA2E7064C074D06E0E06882
:1005900040F0010394E8070098471034AC42F6D3CA
:1005A000FFF7F6FD98550008B8550008202A04DB2F
:1005B000203A00FA02F1002070479140C2F1200376
:1005C00020FA03F3194390407047202A04DB203AB5
:1005D00021FA02F00021704721FA02F3D040C2F163
:1005E0002002914008431946704721B1826842F0C9
:1005F0000102826003E0826822F00102826070479B
:100600000021084A1168084A1140D0E900231A4322
:1006100083681A43C3681A431143044AC2F8041397
:100620007047000004230140E030FCFF002001403F
:100630000146C86C80B270470246002013680B4028
:100640000BB1012000E000207047000030B50246E9
:10065000002000235068104C20400D790C6844EABB
:1006600005242043506090680C4C2040D1E903548D
:100670002C438D682C434D7944EA45042043906017
:10068000D06A20F470000C7D641EE4B2234340EA7B
:100690000350D06230BD0000FFFEFFFCFDF7FFC03D
:1006A000F0B504460D4600200021092D11DDE0685B
:1006B000A5F10A0606EB4607072606FA07F1884366
:1006C000A5F10A0606EB460603FA06F10843E060C8
:1006D0000CE0206905EB4507072606FA07F1884379
:1006E00005EB450603FA06F108432061072A0FDAF5
:1006F000606B561E06EB86071F2606FA07F1884335
:10070000561E06EB860605FA06F10843606322E0F2
:100710000D2A0FDA206BD61F06EB86071F2606FA76
:1007200007F18843D61F06EB860605FA06F1084353
:10073000206310E0E06AA2F10D0606EB86071F2693
:1007400006FA07F18843A2F10D0606EB860605FAC4
:1007500006F10843E062F0BD816841F080418160AC
:100760007047000000B58DB00121202002F07CFA16
:100770000121880202F0B8FA80200B9003208DF846
:10078000300000208DF833000BA9174801F044F920
:100790000121880202F0B8FA00214FF4806002F0D3
:1007A000B3FA002007900A9009904FF48030089027
:1007B00007A8FFF725FF002001908DF808008DF8AD
:1007C00009004FF0805003900020059001208DF823
:1007D000180001A90548FFF739FF01210348FFF779
:1007E00004FF0DB000BD00000014024000220140D3
:1007F00000BFFEE7002004E00021054A1154411C1F
:10080000C8B2C828F8DB0021024A11707047000006
:1008100056A000203000002030B10749096841F09F
:100820000101054A116005E00349096821F0010151
:10083000014A1160704700000000055001494861FD
:10084000704700000000055030B10749096841F4C5
:100850008041054A116005E00349096821F480419F
:10086000014A1160704700000000055070B590B05B
:1008700004460E4615460121880502F0F5F9244884
:1008800000F04CF900BF224800F00BFA0028FAD122
:100890004FF0007001901F480290039400200490D4
:1008A000059506904FF480600790800008908000C6
:1008B000099080110A9040020B9004200C900320B4
:1008C0000D9000200E900F9001A9114800F048FAF9
:1008D00001210F4800F0CEF94FF4002231460C48B8
:1008E00000F0D3F901221021094800F01BFA392049
:1008F0008DF8000000208DF801008DF80200012025
:100900008DF80300684601F0E3FB10B070BD0000F5
:100910002864024028000550002005490860C8608E
:100920001F20486100208861C861086248627047E2
:1009300000000550014600200022044B1B6903EA19
:1009400001020AB1012000E00020704700000550BC
:1009500010B50120FFF7EEFF012809D103F00EF9D1
:100960000120FFF76BFF03480078401C0149087025
:1009700010BD00001400002029B1074AD2680243CC
:10098000054BDA6006E0044AD268C3439BB21A40C2
:10099000014BDA60704700000000055000210E4A4C
:1009A000126844F201039A430B4B1A601A4611680D
:1009B00040F6F2729143028843881A4383881A43AF
:1009C000C3881A4303891A4343891A4383891A4304
:1009D0001143014A116070470000055010B5012114
:1009E000034800F08FF80120FFF716FF10BD00004C
:1009F0002864024010B50020FFF70EFF00BF054835
:100A0000006800F001000028F9D10021024800F040
:100A100079F810BD000005502864024010B5064961
:100A2000064800F04DF9012805D10349034800F0BC
:100A30004FF800F005F810BD00880010286402404F
:100A400000201D4A1D4B1B6802EB83011C4A1268E3
:100A500002F40022BAB11B4A1268A2B900BF05E035
:100A6000194A52F8202041F82020401CB0F5A05F20
:100A7000F6D3124A126802F5A052104B1A600122F6
:100A8000104B1A6017E00F4A1268012A13D1002098
:100A900005E00E4A52F8202041F82020401CB0F515
:100AA000A05FF6D3054A126802F5A052034B1A6004
:100AB0000022044B1A607047000000680C00002000
:100AC0002864024010000020480000204850002008
:100AD0000246094B9A4201D2084801E00648103804
:100AE00001F000531BB1064B0B40C36002E0044B06
:100AF0000B408360704700001064024000600240B9
:100B00007D0F7D0F21B1026842F00102026003E017
:100B1000026822F00102026070470000016821F0C3
:100B2000010101600021016041608160C1600161DB
:100B3000212141614A49884204D13D21484A103A65
:100B400091608CE046491831884205D14FF47461B8
:100B5000434A103A916082E041493031884205D1E0
:100B60004FF474113E4A103A916078E03C494831A4
:100B7000884205D14FF07461394A103A91606EE0B5
:100B800037496031884204D13649354A103AD1603C
:100B900065E033497831884204D13349304A103A0C
:100BA000D1605CE02E499031884204D12F492C4A13
:100BB000103AD16053E02A49A831884205D14FF05C
:100BC0003D51274A103AD16049E02949884204D171
:100BD0003D21274A083A116041E0254918318842F1
:100BE00005D14FF47461224A083A116037E0204978
:100BF0003031884205D14FF474111D4A083A116012
:100C00002DE01B494831884205D14FF07461184AE4
:100C1000083A116023E016496031884204D1114935
:100C2000134A121F11601AE011497831884204D129
:100C30000D490F4A121F116011E00D499031884291
:100C400004D10A490A4A121F116008E00849A83174
:100C5000884204D14FF03D51054A121F1160704780
:100C6000106002403D000020400F002000003D20A9
:100C70001064024021B1026842F48022026003E065
:100C8000026822F480220260704722B1036843F4B4
:100C90000023036003E0036823F400230360016181
:100CA0007047014600200A6802F001020AB10120E3
:100CB00000E0002070470146486880B2704700009D
:100CC00070B50246002000240025124EB24201D227
:100CD000114B01E00F4B103B104E0E4036B11E265B
:100CE00006EAD124166806EA040502E0566906F011
:100CF000800501F000560EB15C6800E01C68084EEB
:100D0000344004EA010616B10DB1012000E00020D4
:100D100070BD000010640240006002403C0F3C0FB8
:100D20007D0F7D0F10B501F080034BB122B14369F7
:100D300043F08003436103E0436923F08003436190
:100D400080290BD02AB1036801F01E0423430360FD
:100D500004E0036801F01E04A343036010BD00001B
:100D600010B500220268134B1A40CC680B6823436D
:100D70004C6923438C692343CC6923430C6A234386
:100D80004C6A23438C6A23434C6B23438C6B234371
:100D90001A430260426922F00702D1E90B3423436F
:100DA0001A4342610B6943604B6883608B68C36080
:100DB00010BD00003F801CF041607047704700008C
:100DC0001CB50121042001F04FFF062000900120F6
:100DD0008DF8040000208DF8060003208DF8050032
:100DE00001208DF807006946114800F015FE01202A
:100DF000104908604FF47A7002F0F2FD00200E49AD
:100E0000C1F8840241F2883002F0EAFD012009496C
:100E1000091D08604FF47A7002F0E2FD00200649D7
:100E2000C1F8880241F2883002F0DAFD1CBD0000F2
:100E300000080240840241420000414230B587B0C0
:100E40000020059006900024002500BF59A002F064
:100E500023FC642002F0C4FD59A15B48FFF7B0F900
:100E60005A49086012E053A002F016FC4FF4FA70E1
:100E700002F0B6FD52A15448FFF7A2F953490860A9
:100E80000846006800B106E0601CC4B24F48006824
:100E900008B90A2CE7DB00BF0A2C03DB15B90024D4
:100EA0000125D3E70A2C04DB012D02D10A2007B06B
:100EB00030BD46480068083044490860084600686C
:100EC0004078303809680978303901EB810100EB4E
:100ED0004100C0B28DF814003C48006800793038F9
:100EE0003A490968C978303901EB810100EB4100CA
:100EF000C0B28DF8150035480068C07930383349E4
:100F000009688979303901EB810100EB4100C0B2F9
:100F10008DF816002D480068807A30382B49096812
:100F2000497A303901EB810100EB41000830C0B251
:100F30008DF817009DF81700182805DD9DF817009B
:100F40001838C0B28DF8170020480068407B303850
:100F50001E490968097B303901EB810100EB410032
:100F6000C0B28DF8180019480068007C3038174965
:100F70000968C97B303901EB810100EB4100C0B247
:100F80008DF81900FFF736FC9DF819009DF8181030
:100F90009DF817209DF81630CDE90032CDE90210FA
:100FA0009DF815309DF814200421012001F080FDEA
:100FB00000207CE741542B43434C4B3F0D0A00007B
:100FC0002B43434C4B00000056A00020180000208B
:100FD00070B50024002500F00BFB4FF47A7002F08E
:100FE000FFFCFFF7EDFE00BFF7A002F055FB4FF44A
:100FF000FA7002F0F5FCF6A1F648FFF7E1F8F649C1
:1010000008600AE04FF4FA7002F0EAFCF0A1F1483F
:10101000FFF7D6F8F0490860641CEF48006808B98B
:101020000A2CEFD3FFF7E6FB0A2C03D315B90024F3
:101030000125D9E70A2C03D3012D01D1012070BD70
:1010400000240025E5A002F027FB4FF4FA7002F01F
:10105000C7FCFFF7CFFBE3A002F01EFB4FF4FA70D2
:1010600002F0BEFCE2A002F017FB4FF4FA7002F0AF
:10107000B7FCFFF7BFFBE0A002F00EFB4FF4FA70E5
:1010800002F0AEFCDFA1D348FFF79AF8D24908601E
:101090000846006810B9DEA002F0FEFA4FF4FA70BC
:1010A00002F09EFCFFF7A6FB00BFDCA002F0F4FA02
:1010B0004FF4FA7002F094FCDBA1C648FFF780F809
:1010C000C54908600EE04FF4FA7002F089FCD6A121
:1010D000C048FFF775F8C04908600846006800B1CD
:1010E00005E0641CBC48006808B90A2CEBD300BFBB
:1010F000FFF780FB0A2C03D315B900240125D4E7A0
:101100000A2C03D3012D01D1022098E700240025E9
:1011100000BFC9A002F0C0FA4FF4FA7002F060FC00
:10112000C8A1AC48FFF74CF8AB490860C8A1A94872
:10113000FFF746F8C94908601AE0BFA002F0ACFA10
:101140004FF4FA7002F04CFCBEA1A248FFF738F849
:10115000A1490860BEA19F48FFF732F8BF49086067
:101160009D48006810B90846006800B108E0641C9A
:101170009948006820B9B948006808B90A2CDCD33E
:1011800000BFFFF737FB0A2C03D315B90024012554
:10119000BFE70A2C03D3012D01D103204FE7002420
:1011A000002500BFAEA002F077FA4FF4FA7002F00B
:1011B00017FCAEA18748FFF703F887490860AEA186
:1011C0008448FEF7FDFFA54908601AE0A4A002F0DC
:1011D00063FA4FF4FA7002F003FCA4A17D48FEF715
:1011E000EFFF7D490860A4A17A48FEF7E9FF9B491B
:1011F00008607948006810B90846006800B108E046
:10120000641C7548006820B99448006808B90A2C25
:10121000DCD300BFFFF7EEFA0A2C03D315B9002484
:101220000125BFE70A2C03D3012D01D1042006E7D5
:101230000024002593A002F02FFA4FF4FA7002F078
:10124000CFFBFFF7D7FA92A002F026FA4FF4FA701C
:1012500002F0C6FBFFF7CEFA00BF91A002F01CFA25
:101260004FF4FA7002F0BCFB59A15A48FEF7A8FFF0
:10127000594908600EE04FF4FA7002F0B1FB54A136
:101280005448FEF79DFF544908600846006800B1C5
:1012900005E0641C5048006808B90A2CEBD300BF75
:1012A000FFF7A8FA0A2C03D315B900240125D4E7C7
:1012B0000A2C03D3012D01D10520C0E6002400250E
:1012C00000BF7FA002F0E8F94FF4FA7002F088FB4B
:1012D0003FA14048FEF774FF3F4908600EE04FF41D
:1012E000FA7002F07DFB3AA13A48FEF769FF3A49ED
:1012F00008600846006800B105E0641C36480068D4
:1013000008B90A2CEBD300BFFFF774FA0A2C03D3F9
:1013100015B900240125D4E70A2C03D3012D01D1EE
:1013200006208CE60024002500BF69A002F0B4F975
:101330004FF4FA7002F054FB25A12648FEF740FF57
:10134000254908600EE04FF4FA7002F049FB20A135
:101350002048FEF735FF204908600846006800B1C4
:1013600005E0641C1C48006808B90A2CEBD300BFD8
:10137000FFF740FA0A2C03D315B900240125D4E75E
:101380000A2C03D3012D01D1072058E600240025A3
:1013900000BF53A002F080F9642002F021FB0CA1F1
:1013A0000C48FEF70DFF0C490860A0E0642002F035
:1013B00017FB07A10748FEF703FF07490860084627
:1013C000006800B199E091E041540D0A000000006E
:1013D0004F4B000056A0002018000020415445301B
:1013E0000D0A000041542B4353510D0A0000000028
:1013F0004154490D0A00000041542B514750533FBE
:101400000D0A00002B514750533A203100000000D4
:1014100041542B514750533D310D0A0041542B4349
:1014200050494E3F0D0A00002B4350494E3A20527E
:10143000454144590000000041542B435245473F69
:101440000D0A00002B435245473A20302C31000052
:101450002B435245473A20302C3500001C00002019
:1014600041542B43475245473F0D0A002B434752F7
:1014700045473A20302C31002B43475245473A200C
:10148000302C350041542B434F50533F0D0A000080
:1014900041542B5149434C4F53453D300D0A0000F8
:1014A00041542B5149435347503D312C312C224359
:1014B0004D4E4554222C22222C22222C300D0A0083
:1014C00041542B514944454143543D310D0A0000DC
:1014D00041542B51494143543D310D0A0000000055
:1014E00041542B43545A553D310D0A00641C2D487C
:1014F000006810B90A2CFFF459AF00BFFFF77AF962
:101500000A2C03D315B90024012542E70A2C03D382
:10151000012D01D1082092E500240025FFF78EFC63
:1015200021A002F0B9F84FF4FA7002F059FAFFF76F
:1015300061F900BF1FA002F0AFF84FF4FA7002F09B
:101540004FFA28A12948FEF73BFE1649086011E032
:1015500018A002F0A1F84FF4FA7002F041FA21A1AC
:101560002248FEF72DFE0F4908600846006800B1CA
:1015700005E0641C0B48006808B90A2CE8D300BFDA
:10158000FFF738F90A2C03D315B900240125D1E758
:101590000A2C03D3012D01D1092050E5FFF72AF9C8
:1015A00000204CE51800002041542B514941435480
:1015B0003F0D0A0041542B51494F50454E3D312CAF
:1015C000302C22544350222C223131312E342E31F2
:1015D00032372E3237222C313030382C302C320D2D
:1015E0000A000000434F4E4E4543540056A00020D1
:1015F00010B505A002F050F840F2DC5002F0F0F90E
:1016000002A002F049F810BD2B2B2B0041542B43B4
:1016100046554E3D312C310D0A000000014908604D
:1016200070470000143C014051B18200A2F1C04259
:10163000126842F001038200A2F1C042136009E087
:101640008200A2F1C0421268034B1A408300A3F14A
:10165000C0431A6070470000FEFF0F00D0E901127E
:101660001143C268114302691143426911438269FF
:101670001143C2691143026A1143426A1143826AEB
:101680001143C26A1143026B114302689200A2F136
:10169000C0421160816808290BD101688900A1F15D
:1016A000C041096841F0400201688900A1F1C041D0
:1016B0000A60416B0968426B526841EA0211426B51
:1016C000926841EA0221426B928941EA0241426BEF
:1016D000128A41EA0251426B127D41EA0261426B79
:1016E000926911430268521C9200A2F1C04211603B
:1016F000C16AB1F5804F1BD1816B0968826B52685A
:1017000041EA0211826B926841EA0221826B128ADD
:1017100041EA0251826B127D41EA0261826B926959
:10172000114302689200A2F1C042C2F8041107E01E
:101730006FF0704201688900A1F1C041C1F8042135
:101740007047000000B599B001217A2001F08CFAB1
:101750000121084601F0A8FA4FF40040179001203B
:101760008DF8600000208DF8620002208DF8610085
:1017700001208DF8630017A9A24800F04DF94FF63B
:101780003370179002208DF8600000208DF8620001
:1017900003208DF8610001208DF8630017A99A4895
:1017A00000F03AF94FF68370179002208DF8600030
:1017B00000208DF8620003208DF8610001208DF873
:1017C000630017A9914800F027F94FF23F001790E6
:1017D00002208DF8600000208DF8620003208DF853
:1017E000610001208DF8630017A9894800F014F901
:1017F00040F23F40179002208DF8600000208DF8E5
:10180000620003208DF8610001208DF8630017A9A4
:10181000804800F001F90C2200217B4800F044F9D7
:101820000C220121784800F03FF90C22042176486F
:1018300000F03AF90C220521734800F035F90C222A
:101840000821714800F030F90C2209216E4800F09F
:101850002BF90C220A216C4800F026F90C220B21EE
:10186000694800F021F90C221146674800F01CF984
:101870000C220D21644800F017F90C220E21624859
:1018800000F012F90C220F215F4800F00DF90C2234
:1018900000215E4800F008F90C2201215B4800F0AD
:1018A00003F90C220721594800F0FEF80C22082108
:1018B000564800F0F9F80C220921544800F0F4F8D9
:1018C0000C220A21514800F0EFF80C220B214F485E
:1018D00000F0EAF80C2211464C4800F0E5F80C2222
:1018E0000D214A4800F0E0F80C220E21474800F094
:1018F000DBF80C220F21454800F0D6F80C2200211D
:10190000434800F0D1F80C220121414800F0CCF806
:101910000C2202213E4800F0C7F80C2203213C486B
:1019200000F0C2F80C220421394800F0BDF80C2266
:101930000521374800F0B8F80C221146344800F071
:10194000B3F80C220D21324800F0AEF80C220E2123
:101950002F4800F0A9F80C220F212D4800F0A4F820
:101960000C2200212B4800F09FF80C22012129486D
:1019700000F09AF80C220221264800F095F80C227B
:101980000321244800F090F80C220421214800F0A3
:101990008BF80C2205211F4800F086F80C220A2142
:1019A0001C4800F081F8002001900F2002900720D1
:1019B0000390002004901020059011200690002034
:1019C000079004200890002009900A9010200B90A6
:1019D00000200C900E900D900F9010904FF48050BE
:1019E0001190002012901390149001A81590169059
:1019F00008A8FFF733FE01210420FFF715FE19B0F8
:101A000000BD000000040240000C02400010024033
:101A10000014024000180240F0B50A4600210023DD
:101A2000002400BF3DE0012505FA01F3156805EA31
:101A300003049C4234D105684F000326BE40B543E1
:101A4000056015794E00B540066835430560157987
:101A5000012D02D01579022D16D185684F0003267D
:101A6000BE40B543856055794E00B5408668354324
:101A70008560456801268E40B54345604568967986
:101A80008E40B6B235434560C5684F000326BE4060
:101A9000B543C560D5794E00B540C6683543C560CD
:101AA000491C1029BFD3F0BDF0B5002300244D0719
:101AB000ED0E02FA05F3CE1000F1200555F8265080
:101AC0004E07F70E0F26BE40B543CF1000F120069B
:101AD00046F82750CE1000F1200555F8265045EA6B
:101AE0000304CE1000F1200545F82640F0BD4183E7
:101AF00070472DE9F0470C46DDE908670021002515
:101B00008C4600BF60E04FF0010808FA01F504EAD6
:101B1000050CAC4557D1D0F800804FEA410A4FF090
:101B2000030909FA0AF928EA0908C0F80080D0F880
:101B300000804FEA410902FA09F948EA0908C0F8A9
:101B40000080012A01D0022A27D1D0F808804FEA6C
:101B5000410A4FF0030909FA0AF928EA0908C0F80E
:101B60000880D0F808804FEA410906FA09F948EAE6
:101B70000908C0F80880D0F804904FF0010808FA6E
:101B800001F829EA0809C0F80490D0F8048003FAA3
:101B900001F948EA0908C0F80480D0F80C804FEA3F
:101BA000410A4FF0030909FA0AF928EA0908C0F8BE
:101BB0000C80D0F80C804FEA410907FA09F948EA8D
:101BC0000908C0F80C80491C10299CD3BDE8F08797
:101BD00010B504460723012221460848FEF760FDA0
:101BE0000648FEF7B9FD00BF02210448FEF724FDB8
:101BF0000028F9D00148FEF71BFD10BD002201406E
:101C00002DE9F04107460C460025002608E038463D
:101C1000FFF7DEFF0544052001F0E2FE701CC6B2AE
:101C2000A642F4DBB5FBF4F080B2BDE8F08100BF62
:101C3000FEE7000010B5044600F088F81CB1012052
:101C40000B49086002E0002009490860022001F009
:101C5000E3FE01200649091F0860022001F0DCFEB6
:101C600000200449C1F8A002022001F0D5FE10BDF9
:101C7000A4824042008040421CB50121022001F0B4
:101C800033F84FF48070009002208DF80500012099
:101C90008DF8040000208DF8060069460848FFF71B
:101CA000BBFE4FF40070009069460548FFF7B4FE94
:101CB0000120044908600449C1F8A0021CBD0000CD
:101CC00000040240A48240420080404270B50024DB
:101CD00001201449086000F029F800251AE0600688
:101CE000040E022001F098FE01200E49091F086031
:101CF000022001F091FE0C48D0F8240208B144F013
:101D0000010400200749091F0860022001F084FE39
:101D1000681CC5B2082DE2DB00200249091F0860DB
:101D2000204670BDA4824042008040421CB54FF462
:101D30000070009000208DF804008DF806006946C0
:101D40000148FFF769FE1CBD000402401CB54FF4BA
:101D50000070009002208DF8050001208DF804002D
:101D600000208DF8060069460148FFF755FE1CBDAE
:101D70000004024010B5FFF7E9FF01200A4908609E
:101D80000A49C1F8A002022001F046FE00200649DF
:101D90000860022001F040FE00200449C1F8A002C2
:101DA000022001F039FE10BDA48240420080404272
:101DB00010B5FFF7CBFF002009490860022001F0B1
:101DC0002BFE01200749C1F8A002022001F024FEE9
:101DD000012003490860022001F01EFE10BD000032
:101DE000A48240420080404270B504460025FFF7BF
:101DF000ADFF00261BE004F0800018B101201A4955
:101E0000086002E0002018490860022001F004FE8A
:101E100001201549091F0860022001F0FDFD002086
:101E20001249C1F8A0026006040E701CC6B2082E4A
:101E3000E1DB01200C490860FFF778FF022001F088
:101E4000EBFD01200949C1F8A002022001F0E4FDE8
:101E50000548803800682843C5B200200349C1F80E
:101E6000A002284670BD0000A4824042008040428B
:101E700010B503460024002209B9002010BDA1F1CD
:101E80001E0205E0985CFF2801D1601CC4B2521C00
:101E90008A42F7D3112C01DD0020EFE70120EDE7A6
:101EA0001CB50121472000F0DFFE0121880300F06E
:101EB0001BFF4FF4E040009001208DF8040000204B
:101EC0008DF8060003208DF8050001208DF807002D
:101ED00069462E48FFF7A0FD4FF4E0412B48FFF77D
:101EE00006FE2020009000208DF8040003208DF8CD
:101EF000050001208DF8070069462548FFF78CFD95
:101F00000120009000208DF8040003208DF80500CA
:101F100001208DF8070069461C48FFF77DFD4FF44E
:101F2000E070009000208DF8040003208DF805007B
:101F300001208DF8070069461648FFF76DFD012066
:101F4000009000208DF8040003208DF8050001208A
:101F50008DF8070069460D48FFF75EFD03200090ED
:101F600001208DF8040000208DF8060003208DF874
:101F7000050001208DF8070069460748FFF74CFD72
:101F800003210548FFF7B3FD1CBD0000000402401B
:101F90000008024000180240000002400EB5012176
:101FA000172000F061FE0121084600F06DFE502070
:101FB000019002208DF8080000208DF80A0003200F
:101FC0008DF8090001208DF80B0001A93948FFF7B1
:101FD00023FDC020019001A93748FFF71DFD4FF4F4
:101FE0003C60019001A93548FFF716FD6020019083
:101FF00001A93348FFF710FD0D2204212D48FFF7FA
:1020000053FD0D2206212B48FFF74EFD0D2207211F
:102010002948FFF749FD0D2206212848FFF744FD16
:102020000D2207212548FFF73FFD0D2208212348F7
:10203000FFF73AFD0D2209212048FFF735FD0D225B
:102040000B211E48FFF730FD0D2206211A48FFF72D
:102050002BFD0D2205211A48FFF726FD0D22062132
:102060001748FFF721FDFEF757FC002015490880AF
:102070004881888108812020888000204880802035
:10208000C8800846FEF78AFC01210846FEF774FC6A
:102090000120FEF7D9FB4E208DF8000000208DF8BE
:1020A000010001208DF802008DF80300684600F061
:1020B0000FF80EBD0000024000040240000802407C
:1020C0000010024048A0002000BFFEE7704700005B
:1020D00070B5002100230F22C4781CB3174C24686C
:1020E00004F4E064C4F5E064C4F30721C1F104041E
:1020F000E3B20A4144789C40E1B284781440214321
:102100000C07210E0E4C05786155047804F01F056C
:102110000124AC4005786D11AD0005F1E025C5F84E
:10212000004109E0047804F01F050124AC40054D8E
:102130000678761145F8264070BD00000CED00E0F1
:1021400000E400E080E100E002490143024A11603E
:10215000704700000000FA050CED00E070B5044681
:10216000042C03DAC4F10400C5B201E0201FC5B29B
:10217000032143F2122000F0F3FA2807010E45F282
:10218000875000F0EDFA042C05DA092145F2885059
:1021900000F0E6FA04E0012145F2885000F0E0FA90
:1021A000132143F2122000F0DBFAA32143F21220A4
:1021B00000F0D6FA70BD000070B50546032143F269
:1021C000122000F0CDFA1C2145F2813000F0C8FA4F
:1021D0005A2145F2823000F0C3FA062145F28330DD
:1021E00000F0BEFA00240CE005EB4502104B03EBB7
:1021F0004202115D45F28432A01800F0B1FA601C71
:10220000C4B2062CF0DB982145F28B3000F0A8FA1E
:10221000012145F28A3000F0A3FA132143F2122083
:1022200000F09EFAA32143F2122000F099FA70BD4B
:102230004A55000870B5044600252026072C1AD2FE
:10224000DFE804F004080C191013160014200546EA
:10225000064610E01820054606460CE01C20054600
:10226000064608E01025242605E01825282602E069
:102270001C252C2600BF00BF032143F2122000F0D2
:102280006FFA294645F2855000F06AFA314645F268
:10229000865000F065FA132143F2122000F060FA34
:1022A000A32143F2122000F05BFA70BD10B5044682
:1022B000022143F2160000F053FA022143F21C00FF
:1022C00000F04EFA2CB1022143F2190000F048FA56
:1022D00004E0002143F2190000F042FA10BD70B58D
:1022E00000250024012143F2230000F039FA0821DF
:1022F00043F2220000F034FA00BF43F2230000F062
:102300009FF90546601C84B2B4F57A7F01DD022096
:1023100070BD052001F064FB002DEED1012143F2D8
:10232000230000F01DFA042143F2220000F018FA05
:10233000002400BF43F2230000F082F90546601C30
:1023400084B2B4F57A7F01DD0220E1E7052001F0D7
:1023500047FB002DEED10020DAE7000070B54FF406
:1023600000458F2620214FF4405000F0F9F9002459
:1023700008E02748015D284600F0F2F9681C85B2A4
:10238000601C84B240F6ED708442F2D3002143F227
:10239000220000F0E5F9002143F2230000F0E0F90B
:1023A000002143F2240000F0DBF9002143F2250074
:1023B00000F0D6F9002143F2260000F0D1F9002107
:1023C00043F2270000F0CCF9002143F2280000F08E
:1023D000C7F97F2143F2290000F0C2F900214FF430
:1023E000405000F0BDF9002400BF43F2290000F086
:1023F00027F90646052001F0F3FA601C84B2B4F513
:102400007A7F01DD012070BD702EEED10020FAE749
:102410001045000870B50025032143F2220000F0AA
:102420009FF911E0681C85B243F2290000F008F919
:102430000446102C00D108E0052001F0D1FAB5F5D2
:102440007A7F01DD012070BDECE700BF0020FAE7D4
:102450001CB50121102000F007FC1820009001207D
:102460008DF8040000208DF8060002208DF805008C
:1024700001208DF8070069460148FFF7CDFA1CBD21
:102480000010024070B50025FFF7E2FF00202B4945
:102490000860142001F0A4FA00202949C1F88C0238
:1024A000052001F09DFA012024490860142001F064
:1024B00097FA00F00BFD052001F092FA43F20A00B2
:1024C00000F0BEF804464FF6FF7000EA042443F221
:1024D0000B0000F0B5F8044345F24060844205D09B
:1024E000214618A001F0D8F8012070BD112143F257
:1024F000031000F035F9822143F2080000F030F9B2
:102500000A2001F06DFA00250AE0104A02EB85026C
:1025100091780E4A32F8250000F022F9681C85B245
:10252000CF2DF2D30120FFF7C1FE142001F058FA9D
:102530000020FFF7BBFE0020D7E7000090024242D8
:102540000000424249443A25640D0A00D441000883
:1025500010B5002400BF0AE0064A02EB840291781D
:10256000044A32F8240000F0FBF8601C84B2292CE5
:10257000F2D310BD7C40000870B50546032143F23C
:10258000122000F0EDF800240AE0C5EBC5020B4B69
:102590001A44115D04F5505000F0E2F8601CC4B21A
:1025A000072CF2DB132143F2122000F0D9F8A3210B
:1025B00043F2122000F0D4F870BD00002755000847
:1025C0002DE9F04104460D4616461F46032143F20D
:1025D000122000F0C5F8311243F6080000F0C0F8F0
:1025E000F1B243F6090000F0BBF8391243F60A00D5
:1025F00000F0B6F8F9B243F60B0000F0B1F8211282
:1026000043F6100000F0ACF8E1B243F6110000F020
:10261000A7F8291243F6120000F0A2F8E9B243F637
:10262000130000F09DF8132143F2122000F098F8F7
:10263000A32143F2122000F093F80020BDE8F081BE
:1026400070B50446002500F0BDFC782000F0E8FCE1
:10265000201200F0E5FCE0B200F0E2FC00F0CAFC61
:1026600000F0B0FC792000F0DBFC00F075FC0546C2
:1026700000F056FC00F0BEFC284670BD10B50446C4
:10268000212C0ADA652145F2083000F069F821466C
:1026900045F2023000F064F82CE0252145F20830C4
:1026A00000F05EF808214FF4A64000F059F8302100
:1026B00045F2013000F054F8102145F2023000F0EC
:1026C0004FF8002145F2033000F04AF8082145F2A6
:1026D000093000F045F8302145F20A3000F040F8AA
:1026E000042145F20B3000F03BF8062145F20C3096
:1026F00000F036F810BD000010B50446032143F287
:10270000122000F02DF804EB4400144A115C4FF441
:10271000AB4000F025F804EB4400104A1044417827
:1027200045F2835000F01CF804EB44000B4A1044BF
:10273000817845F2845000F013F8082145F2030037
:1027400000F00EF8132143F2122000F009F8A32143
:1027500043F2122000F004F810BD00007455000888
:1027600070B504460D46002600F02CFC782000F0E1
:1027700057FC00B10126201200F052FC00B10126E6
:10278000E0B200F04DFC00B10126284600F048FC04
:1027900000B1012600F02EFC304670BD70B500245B
:1027A00000250E2000F010F900F0800038B17F21E4
:1027B0000E2000F029FA0F2000F006F905465521F9
:1027C0000F2000F021FA002401E0601CC4B2322C7A
:1027D000FBDB0F2000F0F8F804463DB129460F203E
:1027E00000F012FA80210E2000F00EFA552C01D0D4
:1027F000012070BD0020FCE770B505460E4614466A
:10280000234A0421052000F0F9F82148807800F0DF
:10281000800010B10120307001E0002030701C48B1
:10282000007800F03F001A4908700846407800F030
:10283000070048700846807800F01F00887008463E
:10284000C078C870012D13D1C87800F0F0FA20705C
:102850000F49887800F0EBFA60700D49087800F0B5
:10286000E6FAA0700A49487800F0E1FAE0700DE05D
:10287000022D0BD10648C078207005488078607022
:1028800003480078A07002484078E07070BD0000F6
:102890002800002070B505460C46194A0321022085
:1028A00000F0ACF81648007800F07F00144908707A
:1028B0000846407800F07F0048700846807800F0B5
:1028C0003F008870012D0ED1887800F0B0FA20709A
:1028D0000B49487800F0ABFA60700949087800F0BD
:1028E000A6FAA0700AE0022D08D105488078207071
:1028F00003484078607002480078A07070BD000006
:1029000024000020F0B503460C461546642093FBD6
:10291000F0F0C6B2642093FBF0F700FB1730C1B2B1
:10292000132E02DD01F16400C1B20846CF1701EB9E
:10293000977701EBA707BAB2072092FBF0F700FBED
:10294000172082B25719601EDFF82CC01CF8000057
:10295000384482B2CF1701EB9777BF10A1EB8707FE
:102960001FB9032C01DA501E82B2072092FBF0F748
:1029700000FB1720C0B2F0BD895500081FB5FFF756
:102980007BF9FFF70BFF40B900F01CF9052000F0C0
:1029900061F8092000F075F802E0012004B010BDD4
:1029A00000F025F91E201D2109220723CDE9003260
:1029B000CDE90210042317221946012000F078F80F
:1029C00000F000F90020E9E770B50446FFF7D2F9FE
:1029D000A220FFF709FA68B92046FFF705FAFFF7CA
:1029E000C9F9A320FFF700FAFFF770F905460120A7
:1029F000FFF720F9FFF7DCF9284670BD2DE9F0411B
:102A000007460C4615460026FFF7B4F9A220FFF74B
:102A1000EBF9D8B93846FFF7E7F9FFF7ABF9A32090
:102A2000FFF7E2F900BF0FE0FFF750F92870601ED2
:102A3000B04203D10120FFF7FDF802E00020FFF7CC
:102A4000F9F86D1C701CC6B2A642EDDBFFF7B0F9B9
:102A5000BDE8F08170B5054600240020FFF7B4FF03
:102A60000446062D02D144F0800405E0052D03D173
:102A700004F07F0424F008042146002000F0C4F88C
:102A800070BD70B5054600240020FFF79DFF044689
:102A900024F00804082D02D144F0080403E0092DB5
:102AA00001D124F008042146002000F0ADF870BDEB
:102AB0002DE9FC5F8046894614461D46DDE90DABD5
:102AC0000C9E3246294604F5FA60FFF71BFF0746C5
:102AD000072F00D10027B8F1010F3DD1632C00DD95
:102AE00000240C2D00DD01251F2E00DD0126062F00
:102AF00000DD0127BAF1170F01DD4FF0000ABBF12D
:102B00003B0F01DD4FF0000B0F983B2801DD00204B
:102B10000F90204600F096F98DF80000284600F04E
:102B200091F98DF80100304600F08CF98DF8020023
:102B3000384600F087F98DF80300504600F082F91E
:102B40008DF80400584600F07DF98DF805000F98C7
:102B500000F078F98DF80600B9F1030F06D19DF861
:102B6000010040F080008DF8010005E09DF80100B3
:102B700020F080008DF801009DF8060010490870D3
:102B80009DF8050048709DF8040088700A460321EE
:102B9000022000F04BF89DF80200094908709DF8EA
:102BA000030048709DF8010088709DF80000C8700F
:102BB0000A460421052000F039F8BDE8FC9F00001A
:102BC0002400002010B500240020FFF7FDFE04467D
:102BD00004F0200008B104F0DF0404F0800008B91C
:102BE00004F0F7042146002000F00EF810BD10B5E7
:102BF00000240020FFF7E8FE044644F020042146AC
:102C0000002000F001F810BD70B505460C46FFF736
:102C1000B1F8A220FFF7E8F828B92846FFF7E4F852
:102C20002046FFF7E1F8FFF7C3F870BD2DE9F0414A
:102C300007460D4614460026FFF79CF8A220FFF732
:102C4000D3F860B93846FFF7CFF800BF05E0207829
:102C5000FFF7CAF8641C701CC6B2AE42F7DBFFF780
:102C6000A7F8BDE8F081704729B1064A126802430F
:102C7000044B1A6004E0034A12688243014B1A6055
:102C8000704700003038024029B1064A12680243FA
:102C9000044B1A6004E0034A12688243014B1A6035
:102CA000704700003438024029B1064A12680243D6
:102CB000044B1A6004E0034A12688243014B1A6015
:102CC000704700003838024029B1064A12680243B2
:102CD000044B1A6004E0034A12688243014B1A60F5
:102CE000704700004038024029B1064A126802438A
:102CF000044B1A6004E0034A12688243014B1A60D5
:102D0000704700004438024029B1064A1268024365
:102D1000044B1A6004E0034A12688243014B1A60B4
:102D20007047000024380240F0B500210022002442
:102D3000022500260223324F3F6807F00C0121B123
:102D4000042905D0082937D105E02E4F076036E069
:102D50002D4F076033E02A4F3F1F3F68C7F380566F
:102D6000274F3F1F3F6807F03F036EB1264FB7FB69
:102D7000F3F7DFF88CC0ACF1040CDCF800C0CCF346
:102D8000881C07FB0CF40CE01E4FB7FBF3F7DFF8D1
:102D900070C0ACF1040CDCF800C0CCF3881C07FB5D
:102DA0000CF4174F3F1F3F68C7F301477F1C7D009E
:102DB000B4FBF5F7076002E0124F076000BF00BFE9
:102DC0000F4F3F6807F0F0010909104F7A5C076860
:102DD000D74047600A4F3F6807F4E051890A0B4F1C
:102DE0007A5C4768D7408760054F3F6807F46041C9
:102DF000490B064F7A5C4768D740C760F0BD0000BA
:102E0000083802400024F40000127A003800002044
:102E100010B54FF4807000F031F8012802D10002A3
:102E200000F01EF84FF40030FEF7F8FB10BD01462D
:102E300000BF080900EB8000420001F00F001044C1
:102E4000C0B270470146002204E0501CC2B2A1F19A
:102E50000A00C1B20A29F8DA100741EA1060704787
:102E600081B241F08001044A126802F0800262EAF5
:102E70000101014A116070470C28004010B501465D
:102E800000200022054B1B68054C03EA040202EAFD
:102E900001030BB1012000E0002010BD0C28004010
:102EA0007F3F010010B54FF48060FFF7E7FF012876
:102EB00002D18002FFF7D4FF4FF48000FEF7AEFB93
:102EC00010BD10B5022000F0A7FD10BD1CB51248C2
:102ED000006840F00800104908600120022100232A
:102EE0000246CDE90010C0210C48FEF702FE0B4857
:102EF0001430006840F0C0000849143108600748E9
:102F0000006820F44050054908600846006840F415
:102F1000805008601CBD000030380240000C0240A8
:102F200010B5FFF7CEFF0120094908600949C1F833
:102F30009C02FFF7C6FF00200549091D0860FFF746
:102F4000C0FF00200349C1F89802FFF7BAFF10BD87
:102F5000988241420080414270B5002416480068C2
:102F600020F44050144908600846006808600825AD
:102F700013E0FFF7A6FF0120104908606006040E69
:102F80000F48D0F8180208B1601CC4B2FFF799FFCF
:102F900000200A490860681EC5B2002DE9DC064819
:102FA000006820F44050044908600846006840F476
:102FB00080500860204670BD000C02409C82414257
:102FC0000080414210B50120084908600849C1F855
:102FD0009C02FFF776FF002004490860FFF771FFAD
:102FE00000200349C1F89C0210BD000098824142B4
:102FF0000080414210B5002007490860FFF761FFDB
:1030000001200649C1F89C02FFF75BFF012002493D
:103010000860FFF756FF10BD988241420080414290
:1030200070B50446002619E004F0800018B10120B4
:103030002049086002E000201E4908606006040E76
:10304000FFF73FFF01201B49091D0860FFF739FF0B
:1030500000201949C1F89C02701CC6B2082EE3DB9F
:103060001648006820F4405014490860084600687B
:103070000860FFF726FF01200E49091D0860FFF7D1
:1030800020FF0D48D0F8180208B1012500E0002506
:1030900000200849091D08600848006820F44050D5
:1030A000064908600846006840F4805008602846D9
:1030B00070BD00009882414200804142000C0240F5
:1030C000704700000CB50020019000903448006863
:1030D00040F480303249086000BF3148006800F495
:1030E000003000900198401C0190009818B9019898
:1030F000B0F5A04FF1D12A48006800F4003010B1BB
:103100000120009001E0002000900098012846D1A5
:1031100023484030006840F0805021494031086029
:103120002048006840F440401E4908601C480830B0
:1031300000681B49083108600846006840F40040F8
:1031400008600846006840F4A05008601648091F4F
:103150000860081F006840F08070091F086000BF09
:103160000F48006800F000700028F9D040F20570A8
:103170000E4908600A480830006820F0030008493A
:10318000083108600846006840F00200086000BF8F
:1031900003480830006800F00C000828F8D10CBD86
:1031A000003802400070004008544007003C0240D4
:1031B000042808D14FF0E021096941F004014FF0E3
:1031C000E022116107E04FF0E021096921F00401DC
:1031D0004FF0E022116170477047000010B51548AC
:1031E000006840F47000134908601348006840F01C
:1031F00001001149086000200F49083108600E489D
:1032000000680E4908400C4908600D48091D086017
:10321000081F006820F48020091F0860002006496C
:103220000C310860FFF74EFF4FF000600149803914
:10323000086010BD88ED00E000380240FFFFF6FE98
:103240001030002470B52DED068B9FED390A10EE7D
:10325000105A9FED370A10EE106A0121354800F030
:10326000BCF801285CD105210846FEF7C9FC0446DC
:1032700000EE104AB8EE400A10EE100AFDF793F87F
:1032800041EC1A0B9FED2C0B53EC102BFCF7AAFF13
:1032900041EC190B9FED2A0B53EC102BFDF714F8A2
:1032A00041EC180BFDF7AAF806463046FDF77BF80F
:1032B00041EC190B9FED240B53EC102BFCF792FF04
:1032C00041EC180BFDF79AF805462846FDF76BF818
:1032D00041EC180B9FED1C0B53EC102BFDF776F80F
:1032E0001BD21B48007860B900201A4908601A49AF
:1032F000C1F8B0021749091D08600120144908707F
:103300000BE00120134908601349C1F8B0021149CC
:10331000091D086000200E49087000200F49087040
:103320000121044800F04AF8BDEC068B70BD000096
:1033300000000000000400406666666666660A409B
:103340000000000000FEAF40000000000000184038
:1033500015000020B482404200804042140000204A
:103360007FB504460D4601210220FFF7ADFCADF804
:1033700004500020ADF806000294ADF80C0001A93D
:103380000D4800F045F8012211460B4800F036F8D0
:103390000121094800F015F81D208DF800000320D8
:1033A0008DF8010001208DF802008DF803006846B9
:1033B000FEF78EFE7FBD000000040040CA4302827B
:1033C000704721B1028842F00102028004E00288C5
:1033D0004FF6FE731A400280704730B50246002057
:1033E00000230024158A05EA0103958905EA0104F2
:1033F00013B10CB1012000E0002030BD1AB1838967
:103400000B43838102E083898B43838170470000F3
:1034100000220288184B98420ED0184B98420BD0CD
:10342000B0F1804F08D0164B984205D0154B98420A
:1034300002D0154B984204D14FF68F731A404B8837
:103440001A43124B984207D0114B984204D04FF6C2
:10345000FF431A400B891A4302804B68C3620B88F2
:103460000385054B984202D0044B984201D18B7AD8
:10347000038601238382704700000140000401405D
:103480000004004000080040000C00400010004014
:103490000014004010B540F22551084800F036F8FD
:1034A00058B1064800F0ECF8C4B20548017800783D
:1034B000401C034A10700348445410BD00440040AF
:1034C0003000002056A0002001F40072B2F5007F09
:1034D00000D100BFCA430280704721B1828942F403
:1034E0000052828104E082894DF6FF731A40828186
:1034F000704702460020B1F5007F00D100BF13885D
:103500000B400BB1012000E00020704770B502466F
:10351000002400230025002040F66A16B14200D1A5
:1035200000BFC1F3421501F01F03012606FA03F3A1
:10353000012D02D19689334006E0022D02D1168A70
:10354000334001E0968A33400C12012606FA04F457
:103550001688344013B10CB1012000E0002070BD8A
:10356000F0B50346002400260025002040F66A1727
:10357000B94200D100BF1846C1F3421401F01F0642
:10358000012707FA06F5012C01D10C3004E0022CCA
:1035900001D1103000E014301AB107682F430760E2
:1035A00002E00768AF430760F0BD00002DE9FF4768
:1035B00005460E460024A14600BFA046B08900B1D2
:1035C00000BF2C8A24F44054F08804432C82AC8938
:1035D00041F20C608443B088318908437189084303
:1035E0000443AC81AC8A24F44074B0890443AC82B7
:1035F0006846FFF799FB2048854202D01F48854264
:1036000002D1DDF80C9001E0DDF80890A88900F403
:10361000004040B109EBC90000EB091031684900D6
:10362000B0FBF1F707E009EBC90000EB09103168C6
:103630008900B0FBF1F76420B7FBF0F0040120092A
:10364000642101FB1078A88900F4004040B13220C9
:1036500000EBC800B0FBF1F000F00700044308E005
:10366000322000EB08106421B0FBF1F000F00F00F5
:1036700004432C81BDE8FF87001001400014014085
:1036800001468888C0F308007047C1F308028280B1
:10369000704700BFFEE700000FB4054B10B503A94B
:1036A000044A029800F018F810BC5DF814FB000002
:1036B000213B00083400002002E008C8121F08C1A6
:1036C000002AFAD170477047002001E001C1121FA3
:1036D000002AFBD1704700002DE9FF4F8BB09A46BE
:1036E0000F460546002606E025280BD052460D99C8
:1036F00090476D1C761C28780028F5D10FB0304615
:10370000BDE8F08F0024A0460122604900E0044398
:1037100015F8013F203B02FA03F00842F7D1287860
:103720002E2817D115F8010F44F004042A280ED0D2
:103730006FF02F022878A0F1300109290AD808EB90
:10374000880102EB410100EB01086D1CF2E757F81C
:10375000048B6D1C287869283ED006DC0028CDD06B
:1037600063280BD0642804D136E0732810D0752864
:103770004BD052460D999047761C85E017F8040B04
:103780008DF8000000208DF80100E946012003E0DB
:1037900057F8049B4FF0FF3061074FF0000401D44D
:1037A0000AE0641C44450DDA8442FADB19F804107F
:1037B0000029F6D106E0641C8442FCDB19F80410F1
:1037C0000029F8D1264404E019F8010B52460D995E
:1037D0009047641EF8D257E001CF4FF00A0B002843
:1037E00002DA40422D2102E0210504D52B218DF87B
:1037F0002410012103E0E10705D02021F7E70DF1B6
:10380000200908910CE00021F9E701CF4FF00A0BE5
:10381000F9E75946FCF70EFE01F1300209F8012DD7
:103820000028F6D1ADEB090000F1200B600701D4B0
:103830004FF00108D84502DDA8EB0B0000E00020A6
:103840008046002406E009A85246005D0D99904785
:10385000641C761C08988442F5DB04E03020524654
:103860000D999047761CB8F10001A8F10108F5DC2C
:1038700005E019F8010B52460D999047761CBBF1F3
:103880000001ABF1010BF4DC6D1C34E709280100E9
:1038900010B5002400BF01201B49086017E000207C
:1038A0001949091F08600A2000F09AF81748D0F853
:1038B000180260B90A2000F093F800BF14480068AD
:1038C0000028FBD0012400201249086003E01248C0
:1038D00000680128E3D000BF00200B4908600FE01A
:1038E0000B48006860B90A2000F07AF800BF084869
:1038F00000680028FBD00024012006490860CAE7C0
:10390000012CEDD010BD0000840240420000434273
:1039100018024342B48240421402414210B50024CE
:1039200000BF01201B49086017E001201949091F49
:1039300008600A2000F054F81748D0F8180260B95F
:103940000A2000F04DF800BF144800680028FBD0A2
:10395000012400201249086004E01148B4380068CE
:103960000128E2D000BF00200A4908600FE00B48A0
:10397000006860B90A2000F033F800BF074800680B
:103980000028FBD00120064908600024C9E7012C6B
:10399000EDD010BD84024042000043421802434271
:1039A000B482404210B504466FF00400FFF700FCFB
:1039B000E11704EB5171C1F3C701074A11701046BA
:1039C000007800EB4001C1EBC0104FF6FF7101EA37
:1039D000C0000249088010BD2C0000202E000020ED
:1039E00070B504464FF4FA7094FBF0F0C6B24FF491
:1039F000FA7094FBF0F100FB114085B205E04FF442
:103A0000FA7000F02FF8701EC6B2002EF7D115B173
:103A1000284600F027F870BD0146114A12784A4343
:103A20004FF0E0235A6100229A611A46126942F06F
:103A300001021A6100BF4FF0E022106900F001029C
:103A40001AB100F48032002AF5D04FF0E02212695A
:103A500022F001024FF0E0231A6100229A617047C0
:103A60002C0000200146114A12884A434FF0E023FF
:103A70005A6100229A611A46126942F001021A61E3
:103A800000BF4FF0E022106900F001021AB100F40B
:103A90008032002AF5D04FF0E022126922F00102B4
:103AA0004FF0E0231A6100229A6170472E00002037
:103AB00078B504460B4621460AA0006800906D4682
:103AC0000BE0501E884201D1002078BD28885E5A44
:103AD000B04201D15818F8E7491C9142F1DB0020AF
:103AE000F3E70000FFD8000078B504460B462146F6
:103AF0000AA0006800906D460BE0501E884201D17C
:103B0000002078BD28885E5AB04201D15818F8E7E5
:103B1000491C9142F1DB0020F3E70000FFD90000CF
:103B200000BF054A128802F04002002AF9D0C2B252
:103B3000014B1B1D1A8070470044004070B50546BC
:103B40000C48006882000C490020FFF7B1FF0446D2
:103B5000084909688A000849601AFFF7C5FF064648
:103B60002CB126B1301B801C2860204670BD00207F
:103B7000FCE700000C0000200000006870B5002683
:103B800000242348007880BB00212248FCF7BAFFBC
:103B900000BF2048FDF785F80028FAD11D48FDF741
:103BA0008AF8C0F5A0561C481C49096800EB81053D
:103BB0001848006800F4002050B1002405E01848BF
:103BC00050F8240045F82400641CB442F7D309E0FF
:103BD000002405E0134850F8240045F82400641C34
:103BE000B442F7D301200A49087009480078022836
:103BF0000DD14FF4A0510748FDF7DEF8012105482B
:103C0000FCF780FF0020054908600149087070BD7D
:103C10000800002028640240000000680C0000201A
:103C2000485000204800002086B0002600244FF4B1
:103C3000A060FEF789FAA820FFF7B4FE4FF4E13048
:103C400000F06AF94FF4E13000F0C0F9FCF78AFDAA
:103C500042F2CF0142F20F70FFF782FBFEF720F92C
:103C60000AE0C820FFF7BCFE5D48006808B90120E3
:103C700000E000205A490860FEF780FE0028F0D1DD
:103C8000FDF760FD0FE000260BE0012054490860BD
:103C9000C820FFF7A5FE00205249C1F8B002701CF1
:103CA000C6B20A2EF1DBFEF7EDFB0028EBD1FEF7E2
:103CB0004FFCFEF753FB0020FEF75EFC0320FEF7EF
:103CC0007BFA0420FEF74AFA0320FEF7B3FA21201C
:103CD000FEF7D4FCFEF703FB0320FEF70DFD0AE020
:103CE000C820FFF77DFE3E48006808B9012000E0CB
:103CF00000203B490860FDF76BF90028F0D102A9CC
:103D00000120FEF7C7FD01AA05A90120FEF774FDF9
:103D10000625FEF743F94FF4A05233493348FCF728
:103D2000A5FD334800EB85004388314830F8252055
:103D300004211020FEF744FC50E002A90120FEF708
:103D4000A9FD5CB99DF80800082807D19DF8090075
:103D50001E2803D19DF80A0000B9012454B99DF82A
:103D600008000C2806D19DF8090018B99DF80A0032
:103D700000B9012454B99DF80800112806D19DF816
:103D8000090018B99DF80A0000B9012454B99DF83A
:103D90000800162806D19DF8090018B99DF80A00F8
:103DA00000B90124B4B101200D49091D0860FFF7D5
:103DB000B5FD4FF47A70FFF713FE00F05DF8FFF7E2
:103DC00067FD00200749C1F8B40241F28830FFF7CF
:103DD00007FE00244FF47A70FFF702FEADE7000003
:103DE000B0824042008040424850002048000020FD
:103DF00058400008F8B506460C460025E0B28DF89C
:103E00000000200A8DF80100200C8DF80200200E21
:103E10008DF8030000BF0CE000BF40211448FFF7FD
:103E200068FB0028F9D01DF805101148FFF72DFC9C
:103E30006D1C042DF0D3002513E000BF40210C4879
:103E4000FFF757FB0028F9D0715D0948FFF71DFC0B
:103E50000848006808B9012000E000200549086012
:103E60006D1CA542E9D30020024908600120F8BD7D
:103E700000440040B882404238B500200090002441
:103E8000224908602249087022490860FEF7C2FAF8
:103E9000FCF7A4FD00BF10E000BF1D48007801281A
:103EA000FBD102201A49087000BF19480078012888
:103EB000FBD1022016490870641C052CECD34FF48A
:103EC0007A70FFF78DFD00BF114800780128FBD103
:103ED00002200F49087014E00D480078012810D125
:103EE0006846FFF72BFE054628460099FDF7C0FF00
:103EF00020B128460099FFF77DFF03E00220044926
:103F00000870E9E700BFFCF775FD38BD0C00002024
:103F1000080000201000002010B588B004460121E0
:103F20000846FEF7A1FE01214804FEF7CDFE072258
:103F300002212448FDF7B8FD072203212148FDF79F
:103F4000B3FD0C20069002208DF81C008DF81D009A
:103F500000208DF81E0001208DF81F0006A91948C9
:103F6000FDF75AFD02940020ADF80C00ADF80E00EC
:103F7000ADF81000ADF814000C20ADF8120002A945
:103F80001148FFF713FB01210F48FFF7A6FA402164
:103F90000D48FFF799FA012240F225510A48FFF730
:103FA000DFFA26208DF8040003208DF8050002209A
:103FB0008DF8060001208DF8070001A8FEF788F8AB
:103FC00008B010BD000002400044004010B586B0AB
:103FD000044601210220FEF747FE01218804FEF776
:103FE00073FE07220A211A48FDF75EFD07220B2106
:103FF0001748FDF759FD4FF44060049002208DF8FA
:1040000014008DF8150000208DF8160001208DF8A1
:10401000170004A90E48FDF7FFFC00940020ADF83E
:104020000400ADF80600ADF80800ADF80C000C2057
:10403000ADF80A0069460748FFF7B8FA01210548BC
:10404000FFF74BFA40210348FFF73EFA06B010BDD8
:104050000004024000480040B0009000A00078003A
:10406000600120014001F0008002E00120035802BD
:1040700000040003000500044006B00400433000C3
:104080001F5000003530210036306900073C070022
:10409000203846002138200014381100153811004E
:1040A000003800000138000002380000033800002A
:1040B00004380A0005383F000638070007389F001B
:1040C00008380200093880000A3801000B38E00087
:1040D0000C380B000D381C000E3807000F38B000EC
:1040E000133804001836040012362B00093712006A
:1040F0000C37000004400600023000000630FF00CC
:1041000013470300074401000B4635000C4622000C
:1041100037481600243802000150A3000335000080
:1041200000436F001F5001003530410036306900F8
:10413000073C0700203846002138000014383100C1
:104140001538310000380000013800000238000046
:104150000338000004380A0005383F00063806001E
:104160000738A90008380500093800000A3802009D
:104170000B38D0000C3805000D38F8000E3803005D
:104180000F38840013380400183600001236290056
:10419000093752000C370300023A0200033AE000EC
:1041A000143A0200153AE0000440020002301C00FC
:1041B0000630C30013470300074404000B463700D2
:1041C0000C46200037481600243804000150A30094
:1041D0000335000008304200033103001730FF00B0
:1041E0001830FF0034301A00373013000831010056
:1041F0003036360031360E003236E20033361200E9
:104200002136E0000437A00003375A001537780044
:10421000173701000B37600005371A000539020017
:104220000639100001390A00313712000036080043
:10423000013633002D306000203652001B3720003D
:104240001C475000133A4300183A0000193AF8008E
:10425000353613003636030034364000223601006E
:10426000013C3400043C2800053C9800063C00005A
:10427000073C0800083C0000093C1C000A3C9C006C
:104280000B3C4000103800001138100012380000BC
:10429000083764000140020005401A0000300000A9
:1042A0000430FF000E3058002E3000000043300074
:1042B0001F5000000E4400000050A7000F3A3000CD
:1042C000103A28001B3A30001E3A2600113A6000CE
:1042D0001F3A1400005823000158140002580F0020
:1042E00003580F00045812000558260006580C0009
:1042F0000758080008580500095805000A58080022
:104300000B580D000C5808000D5803000E58000003
:104310000F580000105803001158090012580700E8
:1043200013580300145800001558010016580300D4
:104330001758080018580D00195808001A58050099
:104340001B5806001C5808001D580E001E58290056
:104350001F5817002058110021581100225815002D
:1043600023582800245846002558260026580800BF
:104370002758260028586400295826002A58240067
:104380002B5822002C5824002D5824002E580600AB
:104390002F58220030584000315842003258240033
:1043A000335826003458240035582200365822004D
:1043B0003758260038584400395824003A58260007
:1043C0003B5828003C5842003D58CE008051FF0029
:1043D0008151F20082510000835114008451250064
:1043E0008551240086510900875109008851090030
:1043F000895175008A5154008B51E0008C51B200F4
:104400008D5142008E513D008F5156009051460013
:104410009151F80092510400935170009451F000B2
:104420009551F000965103009751010098510400F6
:10443000995112009A5104009B5100009C510600B2
:104440009D5182009E513800805401008154080023
:10445000825414008354280084545100855465000C
:104460008654710087547D008854870089549100D8
:104470008A549A008B54AA008C54B8008D54CD00F5
:104480008E54DD008F54EA0090541D0081531E00AD
:1044900082535B008353080084530A0085537E00D7
:1044A0008653880087537C0088536C008953100022
:1044B0008A5301008B5398008055060083554000B5
:1044C00084551000895510008A5500008B55F8005E
:1044D0001D504000005308000153300002531000EB
:1044E000035300000453080005533000065308002E
:1044F00007531600095308000A5330000B530400F9
:104500000C530600255000000830020040472100EF
:10451000020FD6020A39C201222200020FB2E51FA1
:104520007072F51ED235FFEF25E0244EF8E4F60850
:10453000F60FBF34F2900E93E493FFE54BC39F5008
:10454000047F0580027FFB78BDA607120F0440049C
:104550007F0380027F3078BCA607E618F608E6786D
:10456000B9F678BCE678BAF678BF7633E408F67820
:10457000B87601754A0278B6F608F674FF78C1F687
:1045800008F6751F0178BCE675F005A4F54B120A14
:10459000FFC2372278B8E6D3940040021622E51F06
:1045A000B40523E4F51FC20178B6E6FE08E6FF78FD
:1045B0004EA60608A607A237E433F53C903028F053
:1045C000751E10D23522E54B75F0058478BCF69047
:1045D0000E8CE493FF25E0240AF8E6FC08E6FD785B
:1045E000BCE625E0244EF8A60408A605EF120F0B42
:1045F000D378B796EE1896400D78BCE678B9F67881
:10460000B6A60608A607900E8CE493120F0BC3788B
:10461000C296EE1896500D78BCE678BAF678C1A628
:104620000608A60778B6E6FE08E6C378C296FFEE4F
:10463000189678C3F608A607900E95E418120EE9AE
:104640004002D23778BCE6082608F6E51F64017000
:104650004AE6C378C0120EDF4005120EDA40391266
:104660000F0240047FFE80027F0278BDA60778B962
:10467000E6240378BFF678B9E624FD78C0F6120F79
:1046800002400678C0E6FF800478BFE6FF78BEA649
:1046900007751F0278B8760102024AE51F640260BE
:1046A0000302022A78BEE6FFC378C0120EE040087B
:1046B000120EDA5003020228120F0240047FFF801C
:1046C000027F0178BDA60778B9E60478BFF678B90D
:1046D000E61478C0F618120F044004E6FF80027F4B
:1046E0000078BFA607D308E6648094804004E6FF04
:1046F00080027F0078C0A607C318E6648094B35098
:1047000004E6FF80027F3378BFA607C308E6648013
:1047100094B35004E6FF80027F3378C0A607120FDF
:1047200002400678C0E6FF800478BFE6FF78BEA6A8
:1047300007751F0378B876018020E51F6403702693
:1047400078BEE6FFC378C0120EE04005120EDA40D4
:104750000978B9E678BEF6751F0478BEE675F005EF
:10476000A4F54B020AFFE51FB40410900E94E47800
:10477000C3120EE94002D237751F05223001030231
:1047800004C03002030204C09051A5E07893F6A360
:10479000E008F6A3E008F6E51F703C751E20D23550
:1047A000120C7A787EA60608A607788BA6091876DA
:1047B00001120C5B784EA60608A607788BE6786E89
:1047C000F6751F017893E67890F67894E67891F67E
:1047D0007895E67892F6227990E7D378939640051B
:1047E000E796FF8008C37993E7789096FF788876FC
:1047F0000008A6077991E7D37894964005E796FFDD
:104800008008C37994E7789196FF120C8E7992E72D
:10481000D37895964005E796FF8008C37995E778A9
:104820009296FF120C8E120C5B788AE625E0244EDD
:10483000F8A60608A607788AE6246EF8A609788AFC
:10484000E62401FFE433FED3EF940FEE64809480FE
:1048500040047F008005788AE604FF788AA607E591
:104860001FB4010AE660030204C0751F0222120C85
:104870007A7880A60608A607120C7A7882A606081F
:10488000A607786EE6788CF6786EE6788DF67F016E
:10489000EF25E0244FF9C37881E69718E619975081
:1048A0000A120C827880A60408A605746E2FF97887
:1048B0008CE6C3975008746E2FF8E6788CF6EF25D7
:1048C000E0244FF9D37883E69718E61997400A1247
:1048D0000C827882A60408A605746E2FF9788DE6FE
:1048E000D3974008746E2FF8E6788DF60FEF6410BA
:1048F000709EC37981E7788396FF19E718967884CC
:10490000F608A607C3798CE7788D9608F6D37981E7
:10491000E7787F9619E71896400509E7088006C3EF
:10492000797FE7788196FF19E71896FE7886A606C4
:1049300008A607798CE7D3788B964005E796FF8029
:1049400008C3798BE7788C96FF788FA607E51F64FC
:10495000027069900E9193FF18E6C39F5072120C7B
:104960004A120C2F900E8E120C387880120C6B7B32
:1049700004120C1DC31206455056900E92E493FF8C
:10498000788FE69F40028011900E90E493FFD378D9
:1049900089E69F18E694004003751F05120C4A1221
:1049A0000C2F900E8F120C38787E120C6B7B4012FD
:1049B0000C1DD31206454018751F0522E51FB405CE
:1049C0000FD201C202E4F51FF51ED235D233D23622
:1049D00022EF8DF0A4A8F0CF8CF0A428CE8DF0A407
:1049E0002EFE22BC000BBE0029EF8DF084FFADF03F
:1049F00022E4CCF875F008EF2FFFEE33FEEC33FC29
:104A0000EE9DEC984005FCEE9DFE0FD5F0E9E4CE5E
:104A1000FD22EDF8F5F0EE8420D21CFEADF075F02D
:104A200008EF2FFFED33FD4007985006D5F0F22236
:104A3000C398FD0FD5F0EA22E88FF0A4CC8BF0A448
:104A40002CFCE98EF0A42CFC8AF0EDA42CFCEA8E60
:104A5000F0A4CDA8F08BF0A42DCC3825F0FDE98F83
:104A6000F0A42CCD35F0FCEB8EF0A4FEA9F0EB8F7A
:104A7000F0A4CFC5F02ECD39FEE43CFCEAA42DCE47
:104A800035F0FDE43CFC2275F008758200EF2FFF45
:104A9000EE33FECD33CDCC33CCC58233C5829BED16
:104AA0009AEC99E58298400CF582EE9BFEED9AFD1A
:104AB000EC99FC0FD5F0D6E4CEFBE4CDFAE4CCF9CA
:104AC000A88222B800C1B90059BA002DEC8BF0843D
:104AD000CFCECDFCE5F0CBF97818EF2FFFEE33FE0B
:104AE000ED33FDEC33FCEB33FB10D703994004EBC3
:104AF00099FB0FD8E5E4F9FA227818EF2FFFEE338F
:104B0000FEED33FDEC33FCC933C910D7059BE99AA0
:104B10004007EC9BFCE99AF90FD8E0E4C9FAE4CC31
:104B2000FB2275F010EF2FFFEE33FEED33FDCC339B
:104B3000CCC833C810D7079BEC9AE899400AED9B84
:104B4000FDEC9AFCE899F80FD5F0DAE4CDFBE4CC63
:104B5000FAE4C8F922EB9FF5F0EA9E42F0E99D42A3
:104B6000F0E89C45F022E8600FECC313FCED13FD68
:104B7000EE13FEEF13FFD8F122E8600FEFC333FF0F
:104B8000EE33FEED33FDEC33FCD8F122E493FC74FC
:104B90000193FD740293FE740393FF22E6FB08E683
:104BA000F908E6FA08E6CBF822ECF608EDF608EE8E
:104BB000F608EFF622A42582F582E5F03583F58329
:104BC00022D083D082F8E4937012740193700DA305
:104BD000A393F8740193F5828883E4737402936855
:104BE00060EFA3A3A380DF9038047852120BFD90EE
:104BF0003800E0FEA3E0FDEDFFC3120B9E903810DD
:104C0000120B929038067854120BFD903802E0FE99
:104C1000A3E0FDEDFFC3120B9E903812120B92A37E
:104C2000E0B4310778527952120C13903814E0B482
:104C300071157852E6FE08E67802CEC313CE13D87B
:104C4000F97953F7EE19F7903815E0B43107785435
:104C50007954120C13903815E0B471157854E6FEAF
:104C600008E67802CEC313CE13D8F97955F7EE19BA
:104C7000F77952120BD909120BD9AF47120BB2E5D3
:104C800044FB7A00FD7C001204D3785AA60608A6DD
:104C900007AF45120BB2AD037C001204D37856A6C1
:104CA0000608A607AF487854120BB4E543FBFD7C19
:104CB000001204D3785CA60608A607AF467E0078EB
:104CC00054120BB6AD037C001204D37858A6060824
:104CD000A607C3785BE6940818E6940050057600B2
:104CE000087608C3785DE6940818E69400500576C7
:104CF00000087608785A120BC6FFD37857E69F183B
:104D0000E69E400E785AE613FE08E67857120C0825
:104D100080047E007F00785E120BBEFFD37859E6D8
:104D20009F18E69E400E785CE613FE08E67859125E
:104D30000C0880047E007F00E4FCFD786212069976
:104D4000785A120BC6785726FFEE1836FE78661290
:104D50000BBE785926FFEE1836FEE4FCFD786A1289
:104D60000699120BCE786612068CD31206454008BF
:104D7000120BCE78661206997854120BD0786A120C
:104D8000068CD3120645400A7854120BD0786A126A
:104D900006997861E6906001F07865E6A3F078699D
:104DA000E6A3F07855E6A3F07D017861120BE924C3
:104DB00001120BA67865120BE92402120BA6786982
:104DC000120BE92403120BA6786D120BE9240412CE
:104DD0000BA60DBD05D4C20EC20622850841903037
:104DE00024E0F53DA3E0F53EA3E0F53FA3E0F54068
:104DF000A3E0F53CD234E5411206B109310309358F
:104E000004093B05093E06094107094A08095B12E6
:104E1000097318098919095E1A096A1B09AD800905
:104E2000B2810A1D8F0A09900A1D910A1D920A1D5E
:104E3000930A1D940A1D980A179F0A1AEC00000A8B
:104E400038120F7422120F74D20322D20322C2032B
:104E500022A237E433F53C020A1DC201C202C2039A
:104E6000120D0D751E70D235020A1D020A0485400E
:104E70004A853C4B120AFF020A1D854A40854B3C7D
:104E8000020A1DE4F522F523854031853F30853E39
:104E90002F853D2E120F46801F7522007523017449
:104EA000FFF52DF52CF52BF52A120F46852D4085A3
:104EB0002C3F852B3E852A3DE4F53C8070120F1671
:104EC000806B853D45853E46E547C313FFE545C3F9
:104ED0009F50028F45E548C313FFE546C39F50022C
:104EE0008F46E547C313FFFDE5452DFDE433FCE5A3
:104EF00044120F904005E5449FF545E548C313FF74
:104F0000FDE5462DFDE433FCE543120F904005E539
:104F1000439FF5461206D78014854048853F478554
:104F20003E46853D4580060206D7120D7E90302410
:104F3000E53DF0A3E53EF0A3E53FF0A3E540F0A397
:104F4000E53CF0903023E4F022C0E0C083C082C092
:104F5000D0903F0CE0F532E53230E37430366690A5
:104F60006019E0F50AA3E0F50B90601DE0F514A3CD
:104F7000E0F515906021E0F50CA3E0F50D906029B7
:104F8000E0F50EA3E0F50F906031E0F510A3E0F539
:104F900011906039E0F512A3E0F5133001063033CB
:104FA00003D38001C39209300206303303D380015A
:104FB000C3920A30330C300309200206200103D3C8
:104FC0008001C3920B903001E04440F0E054BFF008
:104FD000E53230E114303411903022E0F508E4F08D
:104FE000300003D38001C39208E53230E5129056B9
:104FF000A1E0F509303109300503D38001C3920DDA
:10500000903F0CE532F0D0D0D082D083D0E0329007
:105010000E7EE493FE740193FFC3900E7C740193A3
:105020009FFFE4939EFEE48F3B8E3AF539F538AB53
:105030003BAA3AA939A838AF4BFCFDFE120528124D
:105040000DE1E47BFFFAF9F81205B3120DE1900EC1
:1050500069E4120DF6120DE1E4854A37F536F535AF
:10506000F534AF37AE36AD35AC34A3120DF68F370D
:105070008E368D358C34E53B4537F53BE53A453684
:10508000F53AE5394535F539E5384534F538E4F58F
:1050900022F523853B31853A3085392F85382E021C
:1050A0000F46E0A3E075F002A4FFAEF0C308E69F50
:1050B000F618E69EF622FFE5F034608F82F583EC69
:1050C000F02278527E00E6FC08E6FD0204C1E4FC12
:1050D000FD120699785CE6C313FE08E613227852A7
:1050E000E6FE08E6FFE4FCFD22E7C4F854F0C868D9
:1050F000F709E7C4540F48F722E6FCED75F004A465
:105100002212067C8F488E478D468C4522E0FEA3F6
:10511000E0FDEEF6ED08F62213FFC3E69FFF18E66A
:105120009EFE22E6C313F708E61309F722AD39AC59
:1051300038FAF9F81205288F3B8E3A8D398C38AB46
:1051400037AA36A935A8342293FFE4FCFDFE1205E8
:10515000288F378E368D358C34227884E6FE08E62B
:10516000FFE48F378E36F535F53422900E8CE493BC
:1051700025E0240AF8E6FE08E6FF22E6FE08E6FF40
:10518000E48F3B8E3AF539F53822784EE6FE08E694
:10519000FF22EF25E0244EF8E6FC08E6FD227889A0
:1051A000EF26F618E436F62275890375A80175B85E
:1051B000047534FF75350E75361575370D120E9A58
:1051C000120009120F16120006D200D234D2AF75A7
:1051D00034FF75350E753649753703120E9A30084F
:1051E00009C2341208CBC208D234300B09C23612BD
:1051F000026CC20BD236300909C23612000EC20947
:10520000D236300E031206D73035D3903029E51E42
:10521000F0B41005903023E4F0C23580C1E4F54BC2
:10522000900E7A93FFE48F37F536F535F534AF37C6
:10523000AE36AD35AC34900E6A120DF68F378E3621
:105240008D358C34900E7212067CEF4537F537EEB3
:105250004536F536ED4535F535EC4534F534E4F5B0
:1052600022F52385373185363085352F85342E124A
:105270000F46E4F522F523900E72120DEA120F4646
:10528000E4F522F523900E6E120DEA020F46E5407A
:1052900024F2F537E53F3443F536E53E34A2F535E3
:1052A000E53D3428F534E537FFE4FEFDFC781812BF
:1052B00006698F408E3F8D3E8C3DE53754A0FFE55B
:1052C00036FEE4FDFC78071206567810120F9AE4B9
:1052D000FFFEE535FDE4FC780E120656120F9DE444
:1052E000FFFEFDE534FC78181206567808120F9A76
:1052F000228F3B8E3A8D398C382212067C8F318E6C
:10530000308D2F8C2E2293F9F802066900000000E0
:105310001201170831155354442020202020130176
:10532000100156401A30297E00300420DF3005403D
:10533000BF500300FD502701FE600011003F053003
:10534000003F0622003F012A003F02000036060708
:10535000003F0B0FF000000000300140BF300100A3
:10536000BF302970003A0000FF3A0000FF360336D4
:10537000024144582018100A04040003FF6400008E
:105380008000000000000002040606000351007ABD
:10539000503C281E1010502D281610100200100C22
:1053A00010040C6E060500A55A00AE35AF36E4FDBC
:1053B000EDC395375033120FE2E493F5387401933F
:1053C000F53945386023853982853883E0FC120F32
:1053D000E27403935204120FE2740293420485397B
:1053E00082853883ECF00D80C72278BEE6D308FFB3
:1053F000E66480F8EF6480982293FF7E00E6FC0864
:10540000E6FD1204C178C1E6FC08E6FDD3EF9DEE8F
:105410009C2278BDD3E6648094802225E0240AF89B
:10542000E6FE08E6FF22E53CD39400400B900E8890
:10543000120BF1900E868009900E82120BF1900EE5
:1054400080E493F544A3E493F543D206300603D3F6
:105450008001C3920E22A2AF9232C2AFE523452251
:10546000900E5D600E120FCBE0F52C120FC8E0F528
:105470002D800C120FCBE530F0120FC8E531F0A2F1
:105480003292AF22D201C202E4F51FF51ED235D20C
:1054900033D236D201C202F51FF51ED235D23322E5
:1054A000FBD3ED9B7480F86C9822120669E5402FBF
:1054B000F540E53F3EF53FE53E3DF53EE53D3CF53B
:1054C0003D22C0E0C083C082903F0DE0F533E5335C
:1054D000F0D082D083D0E032900E5FE493FE74016E
:1054E00093F5828E8322787FE4F6D8FD7581CD0214
:1054F0000C988F828E8375F004ED0206A5100810BB
:105500000820102018412018103028613028103849
:105510003061383010403871403810504890504851
:10552000206058A060582004000400040000061CFD
:10553000040004F3010548040007CF0106480400F5
:1055400004D301041004000840010C303D3E3D012D
:10555000103D4D4E4D011552666866021A668082F6
:1055600080021F7A9A9C9A02248FB3B6B3032BABA6
:10557000D6DAD6040640101EA0401E80C01E8080D1
:105580001E40A04040101E60600003030601040698
:105590000205000305000000B855000800000020C7
:1055A00048000000B83600080056000848000020F7
:1055B000D8A40000C8360008001400000000000055
:1055C00000000000000000000000000000000000DB
:1055D00000000000000000000000000000000000CB
:1055E00000000000000000000000000000000000BB
:1055F0000000000001020304010203040607080979
:040000050800018965
:00000001FF
